{
  "_format": "hh-sol-artifact-1",
  "contractName": "AccessMintDynamicMulti",
  "sourceName": "contracts/AccessMintDynamicMulti.sol",
  "abi": [
    {
      "inputs": [
        {
          "internalType": "string",
          "name": "_name",
          "type": "string"
        },
        {
          "internalType": "string",
          "name": "_symbol",
          "type": "string"
        },
        {
          "internalType": "string",
          "name": "_baseURI",
          "type": "string"
        },
        {
          "internalType": "address",
          "name": "initialOwner",
          "type": "address"
        }
      ],
      "stateMutability": "nonpayable",
      "type": "constructor"
    },
    {
      "inputs": [],
      "name": "ERC721EnumerableForbiddenBatchMint",
      "type": "error"
    },
    {
      "inputs": [
        {
          "internalType": "address",
          "name": "sender",
          "type": "address"
        },
        {
          "internalType": "uint256",
          "name": "tokenId",
          "type": "uint256"
        },
        {
          "internalType": "address",
          "name": "owner",
          "type": "address"
        }
      ],
      "name": "ERC721IncorrectOwner",
      "type": "error"
    },
    {
      "inputs": [
        {
          "internalType": "address",
          "name": "operator",
          "type": "address"
        },
        {
          "internalType": "uint256",
          "name": "tokenId",
          "type": "uint256"
        }
      ],
      "name": "ERC721InsufficientApproval",
      "type": "error"
    },
    {
      "inputs": [
        {
          "internalType": "address",
          "name": "approver",
          "type": "address"
        }
      ],
      "name": "ERC721InvalidApprover",
      "type": "error"
    },
    {
      "inputs": [
        {
          "internalType": "address",
          "name": "operator",
          "type": "address"
        }
      ],
      "name": "ERC721InvalidOperator",
      "type": "error"
    },
    {
      "inputs": [
        {
          "internalType": "address",
          "name": "owner",
          "type": "address"
        }
      ],
      "name": "ERC721InvalidOwner",
      "type": "error"
    },
    {
      "inputs": [
        {
          "internalType": "address",
          "name": "receiver",
          "type": "address"
        }
      ],
      "name": "ERC721InvalidReceiver",
      "type": "error"
    },
    {
      "inputs": [
        {
          "internalType": "address",
          "name": "sender",
          "type": "address"
        }
      ],
      "name": "ERC721InvalidSender",
      "type": "error"
    },
    {
      "inputs": [
        {
          "internalType": "uint256",
          "name": "tokenId",
          "type": "uint256"
        }
      ],
      "name": "ERC721NonexistentToken",
      "type": "error"
    },
    {
      "inputs": [
        {
          "internalType": "address",
          "name": "owner",
          "type": "address"
        },
        {
          "internalType": "uint256",
          "name": "index",
          "type": "uint256"
        }
      ],
      "name": "ERC721OutOfBoundsIndex",
      "type": "error"
    },
    {
      "inputs": [
        {
          "internalType": "address",
          "name": "owner",
          "type": "address"
        }
      ],
      "name": "OwnableInvalidOwner",
      "type": "error"
    },
    {
      "inputs": [
        {
          "internalType": "address",
          "name": "account",
          "type": "address"
        }
      ],
      "name": "OwnableUnauthorizedAccount",
      "type": "error"
    },
    {
      "anonymous": false,
      "inputs": [
        {
          "indexed": true,
          "internalType": "address",
          "name": "owner",
          "type": "address"
        },
        {
          "indexed": true,
          "internalType": "address",
          "name": "approved",
          "type": "address"
        },
        {
          "indexed": true,
          "internalType": "uint256",
          "name": "tokenId",
          "type": "uint256"
        }
      ],
      "name": "Approval",
      "type": "event"
    },
    {
      "anonymous": false,
      "inputs": [
        {
          "indexed": true,
          "internalType": "address",
          "name": "owner",
          "type": "address"
        },
        {
          "indexed": true,
          "internalType": "address",
          "name": "operator",
          "type": "address"
        },
        {
          "indexed": false,
          "internalType": "bool",
          "name": "approved",
          "type": "bool"
        }
      ],
      "name": "ApprovalForAll",
      "type": "event"
    },
    {
      "anonymous": false,
      "inputs": [
        {
          "indexed": true,
          "internalType": "address",
          "name": "previousOwner",
          "type": "address"
        },
        {
          "indexed": true,
          "internalType": "address",
          "name": "newOwner",
          "type": "address"
        }
      ],
      "name": "OwnershipTransferred",
      "type": "event"
    },
    {
      "anonymous": false,
      "inputs": [
        {
          "indexed": true,
          "internalType": "address",
          "name": "from",
          "type": "address"
        },
        {
          "indexed": true,
          "internalType": "address",
          "name": "to",
          "type": "address"
        },
        {
          "indexed": true,
          "internalType": "uint256",
          "name": "tokenId",
          "type": "uint256"
        }
      ],
      "name": "Transfer",
      "type": "event"
    },
    {
      "inputs": [
        {
          "internalType": "string",
          "name": "typeName",
          "type": "string"
        },
        {
          "internalType": "uint256",
          "name": "price",
          "type": "uint256"
        },
        {
          "internalType": "uint256",
          "name": "maxSupply",
          "type": "uint256"
        },
        {
          "internalType": "string",
          "name": "metadataURI",
          "type": "string"
        }
      ],
      "name": "addTicketType",
      "outputs": [],
      "stateMutability": "nonpayable",
      "type": "function"
    },
    {
      "inputs": [
        {
          "internalType": "address",
          "name": "to",
          "type": "address"
        },
        {
          "internalType": "uint256",
          "name": "tokenId",
          "type": "uint256"
        }
      ],
      "name": "approve",
      "outputs": [],
      "stateMutability": "nonpayable",
      "type": "function"
    },
    {
      "inputs": [
        {
          "internalType": "address",
          "name": "owner",
          "type": "address"
        }
      ],
      "name": "balanceOf",
      "outputs": [
        {
          "internalType": "uint256",
          "name": "",
          "type": "uint256"
        }
      ],
      "stateMutability": "view",
      "type": "function"
    },
    {
      "inputs": [],
      "name": "baseURI",
      "outputs": [
        {
          "internalType": "string",
          "name": "",
          "type": "string"
        }
      ],
      "stateMutability": "view",
      "type": "function"
    },
    {
      "inputs": [
        {
          "internalType": "uint256",
          "name": "tokenId",
          "type": "uint256"
        }
      ],
      "name": "getApproved",
      "outputs": [
        {
          "internalType": "address",
          "name": "",
          "type": "address"
        }
      ],
      "stateMutability": "view",
      "type": "function"
    },
    {
      "inputs": [
        {
          "internalType": "address",
          "name": "owner",
          "type": "address"
        },
        {
          "internalType": "address",
          "name": "operator",
          "type": "address"
        }
      ],
      "name": "isApprovedForAll",
      "outputs": [
        {
          "internalType": "bool",
          "name": "",
          "type": "bool"
        }
      ],
      "stateMutability": "view",
      "type": "function"
    },
    {
      "inputs": [
        {
          "internalType": "uint256",
          "name": "ticketTypeId",
          "type": "uint256"
        }
      ],
      "name": "mint",
      "outputs": [],
      "stateMutability": "payable",
      "type": "function"
    },
    {
      "inputs": [],
      "name": "name",
      "outputs": [
        {
          "internalType": "string",
          "name": "",
          "type": "string"
        }
      ],
      "stateMutability": "view",
      "type": "function"
    },
    {
      "inputs": [],
      "name": "owner",
      "outputs": [
        {
          "internalType": "address",
          "name": "",
          "type": "address"
        }
      ],
      "stateMutability": "view",
      "type": "function"
    },
    {
      "inputs": [
        {
          "internalType": "uint256",
          "name": "tokenId",
          "type": "uint256"
        }
      ],
      "name": "ownerOf",
      "outputs": [
        {
          "internalType": "address",
          "name": "",
          "type": "address"
        }
      ],
      "stateMutability": "view",
      "type": "function"
    },
    {
      "inputs": [],
      "name": "renounceOwnership",
      "outputs": [],
      "stateMutability": "nonpayable",
      "type": "function"
    },
    {
      "inputs": [
        {
          "internalType": "address",
          "name": "from",
          "type": "address"
        },
        {
          "internalType": "address",
          "name": "to",
          "type": "address"
        },
        {
          "internalType": "uint256",
          "name": "tokenId",
          "type": "uint256"
        }
      ],
      "name": "safeTransferFrom",
      "outputs": [],
      "stateMutability": "nonpayable",
      "type": "function"
    },
    {
      "inputs": [
        {
          "internalType": "address",
          "name": "from",
          "type": "address"
        },
        {
          "internalType": "address",
          "name": "to",
          "type": "address"
        },
        {
          "internalType": "uint256",
          "name": "tokenId",
          "type": "uint256"
        },
        {
          "internalType": "bytes",
          "name": "data",
          "type": "bytes"
        }
      ],
      "name": "safeTransferFrom",
      "outputs": [],
      "stateMutability": "nonpayable",
      "type": "function"
    },
    {
      "inputs": [
        {
          "internalType": "address",
          "name": "operator",
          "type": "address"
        },
        {
          "internalType": "bool",
          "name": "approved",
          "type": "bool"
        }
      ],
      "name": "setApprovalForAll",
      "outputs": [],
      "stateMutability": "nonpayable",
      "type": "function"
    },
    {
      "inputs": [
        {
          "internalType": "string",
          "name": "_newBaseURI",
          "type": "string"
        }
      ],
      "name": "setBaseURI",
      "outputs": [],
      "stateMutability": "nonpayable",
      "type": "function"
    },
    {
      "inputs": [
        {
          "internalType": "bytes4",
          "name": "interfaceId",
          "type": "bytes4"
        }
      ],
      "name": "supportsInterface",
      "outputs": [
        {
          "internalType": "bool",
          "name": "",
          "type": "bool"
        }
      ],
      "stateMutability": "view",
      "type": "function"
    },
    {
      "inputs": [],
      "name": "symbol",
      "outputs": [
        {
          "internalType": "string",
          "name": "",
          "type": "string"
        }
      ],
      "stateMutability": "view",
      "type": "function"
    },
    {
      "inputs": [],
      "name": "ticketTypeCount",
      "outputs": [
        {
          "internalType": "uint256",
          "name": "",
          "type": "uint256"
        }
      ],
      "stateMutability": "view",
      "type": "function"
    },
    {
      "inputs": [
        {
          "internalType": "uint256",
          "name": "",
          "type": "uint256"
        }
      ],
      "name": "ticketTypes",
      "outputs": [
        {
          "internalType": "string",
          "name": "typeName",
          "type": "string"
        },
        {
          "internalType": "uint256",
          "name": "price",
          "type": "uint256"
        },
        {
          "internalType": "uint256",
          "name": "maxSupply",
          "type": "uint256"
        },
        {
          "internalType": "uint256",
          "name": "sold",
          "type": "uint256"
        },
        {
          "internalType": "string",
          "name": "metadataURI",
          "type": "string"
        }
      ],
      "stateMutability": "view",
      "type": "function"
    },
    {
      "inputs": [
        {
          "internalType": "uint256",
          "name": "index",
          "type": "uint256"
        }
      ],
      "name": "tokenByIndex",
      "outputs": [
        {
          "internalType": "uint256",
          "name": "",
          "type": "uint256"
        }
      ],
      "stateMutability": "view",
      "type": "function"
    },
    {
      "inputs": [
        {
          "internalType": "address",
          "name": "owner",
          "type": "address"
        },
        {
          "internalType": "uint256",
          "name": "index",
          "type": "uint256"
        }
      ],
      "name": "tokenOfOwnerByIndex",
      "outputs": [
        {
          "internalType": "uint256",
          "name": "",
          "type": "uint256"
        }
      ],
      "stateMutability": "view",
      "type": "function"
    },
    {
      "inputs": [
        {
          "internalType": "uint256",
          "name": "tokenId",
          "type": "uint256"
        }
      ],
      "name": "tokenURI",
      "outputs": [
        {
          "internalType": "string",
          "name": "",
          "type": "string"
        }
      ],
      "stateMutability": "view",
      "type": "function"
    },
    {
      "inputs": [],
      "name": "totalSupply",
      "outputs": [
        {
          "internalType": "uint256",
          "name": "",
          "type": "uint256"
        }
      ],
      "stateMutability": "view",
      "type": "function"
    },
    {
      "inputs": [
        {
          "internalType": "address",
          "name": "from",
          "type": "address"
        },
        {
          "internalType": "address",
          "name": "to",
          "type": "address"
        },
        {
          "internalType": "uint256",
          "name": "tokenId",
          "type": "uint256"
        }
      ],
      "name": "transferFrom",
      "outputs": [],
      "stateMutability": "nonpayable",
      "type": "function"
    },
    {
      "inputs": [
        {
          "internalType": "address",
          "name": "newOwner",
          "type": "address"
        }
      ],
      "name": "transferOwnership",
      "outputs": [],
      "stateMutability": "nonpayable",
      "type": "function"
    },
    {
      "inputs": [],
      "name": "withdraw",
      "outputs": [],
      "stateMutability": "nonpayable",
      "type": "function"
    }
  ],
  "bytecode": "0x60806040523480156200001157600080fd5b5060405162003c7c38038062003c7c8339818101604052810190620000379190620003c1565b80848481600090816200004b9190620006db565b5080600190816200005d9190620006db565b505050600073ffffffffffffffffffffffffffffffffffffffff168173ffffffffffffffffffffffffffffffffffffffff1603620000d55760006040517f1e4fbdf7000000000000000000000000000000000000000000000000000000008152600401620000cc9190620007d3565b60405180910390fd5b620000e6816200010360201b60201c565b5081600d9081620000f89190620006db565b5050505050620007f0565b6000600a60009054906101000a900473ffffffffffffffffffffffffffffffffffffffff16905081600a60006101000a81548173ffffffffffffffffffffffffffffffffffffffff021916908373ffffffffffffffffffffffffffffffffffffffff1602179055508173ffffffffffffffffffffffffffffffffffffffff168173ffffffffffffffffffffffffffffffffffffffff167f8be0079c531659141344cd1fd0a4f28419497f9722a3daafe3b4186f6b6457e060405160405180910390a35050565b6000604051905090565b600080fd5b600080fd5b600080fd5b600080fd5b6000601f19601f8301169050919050565b7f4e487b7100000000000000000000000000000000000000000000000000000000600052604160045260246000fd5b6200023282620001e7565b810181811067ffffffffffffffff82111715620002545762000253620001f8565b5b80604052505050565b600062000269620001c9565b905062000277828262000227565b919050565b600067ffffffffffffffff8211156200029a5762000299620001f8565b5b620002a582620001e7565b9050602081019050919050565b60005b83811015620002d2578082015181840152602081019050620002b5565b60008484015250505050565b6000620002f5620002ef846200027c565b6200025d565b905082815260208101848484011115620003145762000313620001e2565b5b62000321848285620002b2565b509392505050565b600082601f830112620003415762000340620001dd565b5b815162000353848260208601620002de565b91505092915050565b600073ffffffffffffffffffffffffffffffffffffffff82169050919050565b600062000389826200035c565b9050919050565b6200039b816200037c565b8114620003a757600080fd5b50565b600081519050620003bb8162000390565b92915050565b60008060008060808587031215620003de57620003dd620001d3565b5b600085015167ffffffffffffffff811115620003ff57620003fe620001d8565b5b6200040d8782880162000329565b945050602085015167ffffffffffffffff811115620004315762000430620001d8565b5b6200043f8782880162000329565b935050604085015167ffffffffffffffff811115620004635762000462620001d8565b5b620004718782880162000329565b92505060606200048487828801620003aa565b91505092959194509250565b600081519050919050565b7f4e487b7100000000000000000000000000000000000000000000000000000000600052602260045260246000fd5b60006002820490506001821680620004e357607f821691505b602082108103620004f957620004f86200049b565b5b50919050565b60008190508160005260206000209050919050565b60006020601f8301049050919050565b600082821b905092915050565b600060088302620005637fffffffffffffffffffffffffffffffffffffffffffffffffffffffffffffffff8262000524565b6200056f868362000524565b95508019841693508086168417925050509392505050565b6000819050919050565b6000819050919050565b6000620005bc620005b6620005b08462000587565b62000591565b62000587565b9050919050565b6000819050919050565b620005d8836200059b565b620005f0620005e782620005c3565b84845462000531565b825550505050565b600090565b62000607620005f8565b62000614818484620005cd565b505050565b5b818110156200063c5762000630600082620005fd565b6001810190506200061a565b5050565b601f8211156200068b576200065581620004ff565b620006608462000514565b8101602085101562000670578190505b620006886200067f8562000514565b83018262000619565b50505b505050565b600082821c905092915050565b6000620006b06000198460080262000690565b1980831691505092915050565b6000620006cb83836200069d565b9150826002028217905092915050565b620006e68262000490565b67ffffffffffffffff811115620007025762000701620001f8565b5b6200070e8254620004ca565b6200071b82828562000640565b600060209050601f8311600181146200075357600084156200073e578287015190505b6200074a8582620006bd565b865550620007ba565b601f1984166200076386620004ff565b60005b828110156200078d5784890151825560018201915060208501945060208101905062000766565b86831015620007ad5784890151620007a9601f8916826200069d565b8355505b6001600288020188555050505b505050505050565b620007cd816200037c565b82525050565b6000602082019050620007ea6000830184620007c2565b92915050565b61347c80620008006000396000f3fe6080604052600436106101815760003560e01c80636352211e116100d1578063a0712d681161008a578063c87b56dd11610064578063c87b56dd1461055f578063e985e9c51461059c578063e9dbebce146105d9578063f2fde38b1461061a57610181565b8063a0712d68146104f1578063a22cb4651461050d578063b88d4fde1461053657610181565b80636352211e146103df5780636c0360eb1461041c57806370a0823114610447578063715018a6146104845780638da5cb5b1461049b57806395d89b41146104c657610181565b80632f745c591161013e57806342842e0e1161011857806342842e0e146103275780634f6ccce71461035057806355f804b31461038d57806359115906146103b657610181565b80632f745c59146102a85780633aeb2b53146102e55780633ccfd60b1461031057610181565b806301ffc9a71461018657806306fdde03146101c3578063081812fc146101ee578063095ea7b31461022b57806318160ddd1461025457806323b872dd1461027f575b600080fd5b34801561019257600080fd5b506101ad60048036038101906101a89190612463565b610643565b6040516101ba91906124ab565b60405180910390f35b3480156101cf57600080fd5b506101d86106bd565b6040516101e59190612556565b60405180910390f35b3480156101fa57600080fd5b50610215600480360381019061021091906125ae565b61074f565b604051610222919061261c565b60405180910390f35b34801561023757600080fd5b50610252600480360381019061024d9190612663565b61076b565b005b34801561026057600080fd5b50610269610781565b60405161027691906126b2565b60405180910390f35b34801561028b57600080fd5b506102a660048036038101906102a191906126cd565b61078e565b005b3480156102b457600080fd5b506102cf60048036038101906102ca9190612663565b610890565b6040516102dc91906126b2565b60405180910390f35b3480156102f157600080fd5b506102fa610939565b60405161030791906126b2565b60405180910390f35b34801561031c57600080fd5b5061032561093f565b005b34801561033357600080fd5b5061034e600480360381019061034991906126cd565b610990565b005b34801561035c57600080fd5b50610377600480360381019061037291906125ae565b6109b0565b60405161038491906126b2565b60405180910390f35b34801561039957600080fd5b506103b460048036038101906103af9190612855565b610a26565b005b3480156103c257600080fd5b506103dd60048036038101906103d8919061289e565b610a41565b005b3480156103eb57600080fd5b50610406600480360381019061040191906125ae565b610af1565b604051610413919061261c565b60405180910390f35b34801561042857600080fd5b50610431610b03565b60405161043e9190612556565b60405180910390f35b34801561045357600080fd5b5061046e6004803603810190610469919061293d565b610b91565b60405161047b91906126b2565b60405180910390f35b34801561049057600080fd5b50610499610c4b565b005b3480156104a757600080fd5b506104b0610c5f565b6040516104bd919061261c565b60405180910390f35b3480156104d257600080fd5b506104db610c89565b6040516104e89190612556565b60405180910390f35b61050b600480360381019061050691906125ae565b610d1b565b005b34801561051957600080fd5b50610534600480360381019061052f9190612996565b610e4b565b005b34801561054257600080fd5b5061055d60048036038101906105589190612a77565b610e61565b005b34801561056b57600080fd5b50610586600480360381019061058191906125ae565b610e86565b6040516105939190612556565b60405180910390f35b3480156105a857600080fd5b506105c360048036038101906105be9190612afa565b610f10565b6040516105d091906124ab565b60405180910390f35b3480156105e557600080fd5b5061060060048036038101906105fb91906125ae565b610fa4565b604051610611959493929190612b3a565b60405180910390f35b34801561062657600080fd5b50610641600480360381019061063c919061293d565b6110ea565b005b60007f780e9d63000000000000000000000000000000000000000000000000000000007bffffffffffffffffffffffffffffffffffffffffffffffffffffffff1916827bffffffffffffffffffffffffffffffffffffffffffffffffffffffff191614806106b657506106b582611170565b5b9050919050565b6060600080546106cc90612bca565b80601f01602080910402602001604051908101604052809291908181526020018280546106f890612bca565b80156107455780601f1061071a57610100808354040283529160200191610745565b820191906000526020600020905b81548152906001019060200180831161072857829003601f168201915b5050505050905090565b600061075a82611252565b50610764826112da565b9050919050565b61077d8282610778611317565b61131f565b5050565b6000600880549050905090565b600073ffffffffffffffffffffffffffffffffffffffff168273ffffffffffffffffffffffffffffffffffffffff16036108005760006040517f64a0ae920000000000000000000000000000000000000000000000000000000081526004016107f7919061261c565b60405180910390fd5b6000610814838361080f611317565b611331565b90508373ffffffffffffffffffffffffffffffffffffffff168173ffffffffffffffffffffffffffffffffffffffff161461088a578382826040517f64283d7b00000000000000000000000000000000000000000000000000000000815260040161088193929190612bfb565b60405180910390fd5b50505050565b600061089b83610b91565b82106108e05782826040517fa57d13dc0000000000000000000000000000000000000000000000000000000081526004016108d7929190612c32565b60405180910390fd5b600660008473ffffffffffffffffffffffffffffffffffffffff1673ffffffffffffffffffffffffffffffffffffffff168152602001908152602001600020600083815260200190815260200160002054905092915050565b600c5481565b61094761144e565b3373ffffffffffffffffffffffffffffffffffffffff166108fc479081150290604051600060405180830381858888f1935050505015801561098d573d6000803e3d6000fd5b50565b6109ab83838360405180602001604052806000815250610e61565b505050565b60006109ba610781565b8210610a00576000826040517fa57d13dc0000000000000000000000000000000000000000000000000000000081526004016109f7929190612c32565b60405180910390fd5b60088281548110610a1457610a13612c5b565b5b90600052602060002001549050919050565b610a2e61144e565b80600d9081610a3d9190612e36565b5050565b610a4961144e565b600c6000815480929190610a5c90612f37565b91905055506040518060a001604052808581526020018481526020018381526020016000815260200182815250600b6000600c5481526020019081526020016000206000820151816000019081610ab39190612e36565b506020820151816001015560408201518160020155606082015181600301556080820151816004019081610ae79190612e36565b5090505050505050565b6000610afc82611252565b9050919050565b600d8054610b1090612bca565b80601f0160208091040260200160405190810160405280929190818152602001828054610b3c90612bca565b8015610b895780601f10610b5e57610100808354040283529160200191610b89565b820191906000526020600020905b815481529060010190602001808311610b6c57829003601f168201915b505050505081565b60008073ffffffffffffffffffffffffffffffffffffffff168273ffffffffffffffffffffffffffffffffffffffff1603610c045760006040517f89c62b64000000000000000000000000000000000000000000000000000000008152600401610bfb919061261c565b60405180910390fd5b600360008373ffffffffffffffffffffffffffffffffffffffff1673ffffffffffffffffffffffffffffffffffffffff168152602001908152602001600020549050919050565b610c5361144e565b610c5d60006114d5565b565b6000600a60009054906101000a900473ffffffffffffffffffffffffffffffffffffffff16905090565b606060018054610c9890612bca565b80601f0160208091040260200160405190810160405280929190818152602001828054610cc490612bca565b8015610d115780601f10610ce657610100808354040283529160200191610d11565b820191906000526020600020905b815481529060010190602001808311610cf457829003601f168201915b5050505050905090565b6000600b600083815260200190815260200160002090506000816001015411610d79576040517f08c379a0000000000000000000000000000000000000000000000000000000008152600401610d7090612fcb565b60405180910390fd5b8060010154341015610dc0576040517f08c379a0000000000000000000000000000000000000000000000000000000008152600401610db790613037565b60405180910390fd5b8060020154816003015410610e0a576040517f08c379a0000000000000000000000000000000000000000000000000000000008152600401610e01906130a3565b60405180910390fd5b806003016000815480929190610e1f90612f37565b919050555060006001610e30610781565b610e3a91906130c3565b9050610e46338261159b565b505050565b610e5d610e56611317565b83836115b9565b5050565b610e6c84848461078e565b610e80610e77611317565b85858585611728565b50505050565b6060600082118015610e9f5750610e9b610781565b8211155b610ede576040517f08c379a0000000000000000000000000000000000000000000000000000000008152600401610ed590613143565b60405180910390fd5b600d610ee9836118d9565b604051602001610efa929190613222565b6040516020818303038152906040529050919050565b6000600560008473ffffffffffffffffffffffffffffffffffffffff1673ffffffffffffffffffffffffffffffffffffffff16815260200190815260200160002060008373ffffffffffffffffffffffffffffffffffffffff1673ffffffffffffffffffffffffffffffffffffffff16815260200190815260200160002060009054906101000a900460ff16905092915050565b600b602052806000526040600020600091509050806000018054610fc790612bca565b80601f0160208091040260200160405190810160405280929190818152602001828054610ff390612bca565b80156110405780601f1061101557610100808354040283529160200191611040565b820191906000526020600020905b81548152906001019060200180831161102357829003601f168201915b50505050509080600101549080600201549080600301549080600401805461106790612bca565b80601f016020809104026020016040519081016040528092919081815260200182805461109390612bca565b80156110e05780601f106110b5576101008083540402835291602001916110e0565b820191906000526020600020905b8154815290600101906020018083116110c357829003601f168201915b5050505050905085565b6110f261144e565b600073ffffffffffffffffffffffffffffffffffffffff168173ffffffffffffffffffffffffffffffffffffffff16036111645760006040517f1e4fbdf700000000000000000000000000000000000000000000000000000000815260040161115b919061261c565b60405180910390fd5b61116d816114d5565b50565b60007f80ac58cd000000000000000000000000000000000000000000000000000000007bffffffffffffffffffffffffffffffffffffffffffffffffffffffff1916827bffffffffffffffffffffffffffffffffffffffffffffffffffffffff1916148061123b57507f5b5e139f000000000000000000000000000000000000000000000000000000007bffffffffffffffffffffffffffffffffffffffffffffffffffffffff1916827bffffffffffffffffffffffffffffffffffffffffffffffffffffffff1916145b8061124b575061124a82611a3f565b5b9050919050565b60008061125e83611aa9565b9050600073ffffffffffffffffffffffffffffffffffffffff168173ffffffffffffffffffffffffffffffffffffffff16036112d157826040517f7e2732890000000000000000000000000000000000000000000000000000000081526004016112c891906126b2565b60405180910390fd5b80915050919050565b60006004600083815260200190815260200160002060009054906101000a900473ffffffffffffffffffffffffffffffffffffffff169050919050565b600033905090565b61132c8383836001611ae6565b505050565b60008061133f858585611cab565b9050600073ffffffffffffffffffffffffffffffffffffffff168173ffffffffffffffffffffffffffffffffffffffff16036113835761137e84611ec5565b6113c2565b8473ffffffffffffffffffffffffffffffffffffffff168173ffffffffffffffffffffffffffffffffffffffff16146113c1576113c08185611f0e565b5b5b600073ffffffffffffffffffffffffffffffffffffffff168573ffffffffffffffffffffffffffffffffffffffff1603611404576113ff84611ff9565b611443565b8473ffffffffffffffffffffffffffffffffffffffff168173ffffffffffffffffffffffffffffffffffffffff16146114425761144185856120ca565b5b5b809150509392505050565b611456611317565b73ffffffffffffffffffffffffffffffffffffffff16611474610c5f565b73ffffffffffffffffffffffffffffffffffffffff16146114d357611497611317565b6040517f118cdaa70000000000000000000000000000000000000000000000000000000081526004016114ca919061261c565b60405180910390fd5b565b6000600a60009054906101000a900473ffffffffffffffffffffffffffffffffffffffff16905081600a60006101000a81548173ffffffffffffffffffffffffffffffffffffffff021916908373ffffffffffffffffffffffffffffffffffffffff1602179055508173ffffffffffffffffffffffffffffffffffffffff168173ffffffffffffffffffffffffffffffffffffffff167f8be0079c531659141344cd1fd0a4f28419497f9722a3daafe3b4186f6b6457e060405160405180910390a35050565b6115b5828260405180602001604052806000815250612155565b5050565b600073ffffffffffffffffffffffffffffffffffffffff168273ffffffffffffffffffffffffffffffffffffffff160361162a57816040517f5b08ba18000000000000000000000000000000000000000000000000000000008152600401611621919061261c565b60405180910390fd5b80600560008573ffffffffffffffffffffffffffffffffffffffff1673ffffffffffffffffffffffffffffffffffffffff16815260200190815260200160002060008473ffffffffffffffffffffffffffffffffffffffff1673ffffffffffffffffffffffffffffffffffffffff16815260200190815260200160002060006101000a81548160ff0219169083151502179055508173ffffffffffffffffffffffffffffffffffffffff168373ffffffffffffffffffffffffffffffffffffffff167f17307eab39ab6107e8899845ad3d59bd9653f200f220920489ca2b5937696c318360405161171b91906124ab565b60405180910390a3505050565b60008373ffffffffffffffffffffffffffffffffffffffff163b11156118d2578273ffffffffffffffffffffffffffffffffffffffff1663150b7a02868685856040518563ffffffff1660e01b8152600401611787949392919061329b565b6020604051808303816000875af19250505080156117c357506040513d601f19601f820116820180604052508101906117c091906132fc565b60015b611847573d80600081146117f3576040519150601f19603f3d011682016040523d82523d6000602084013e6117f8565b606091505b50600081510361183f57836040517f64a0ae92000000000000000000000000000000000000000000000000000000008152600401611836919061261c565b60405180910390fd5b805181602001fd5b63150b7a0260e01b7bffffffffffffffffffffffffffffffffffffffffffffffffffffffff1916817bffffffffffffffffffffffffffffffffffffffffffffffffffffffff1916146118d057836040517f64a0ae920000000000000000000000000000000000000000000000000000000081526004016118c7919061261c565b60405180910390fd5b505b5050505050565b606060008203611920576040518060400160405280600181526020017f30000000000000000000000000000000000000000000000000000000000000008152509050611a3a565b600082905060005b6000821461195257808061193b90612f37565b915050600a8261194b9190613358565b9150611928565b60008167ffffffffffffffff81111561196e5761196d61272a565b5b6040519080825280601f01601f1916602001820160405280156119a05781602001600182028036833780820191505090505b50905060008290508593505b60008414611a3257600a846119c19190613389565b60306119cd91906130c3565b60f81b82826119db906133ba565b925082815181106119ef576119ee612c5b565b5b60200101907effffffffffffffffffffffffffffffffffffffffffffffffffffffffffffff1916908160001a905350600a84611a2b9190613358565b93506119ac565b819450505050505b919050565b60007f01ffc9a7000000000000000000000000000000000000000000000000000000007bffffffffffffffffffffffffffffffffffffffffffffffffffffffff1916827bffffffffffffffffffffffffffffffffffffffffffffffffffffffff1916149050919050565b60006002600083815260200190815260200160002060009054906101000a900473ffffffffffffffffffffffffffffffffffffffff169050919050565b8080611b1f5750600073ffffffffffffffffffffffffffffffffffffffff168273ffffffffffffffffffffffffffffffffffffffff1614155b15611c53576000611b2f84611252565b9050600073ffffffffffffffffffffffffffffffffffffffff168373ffffffffffffffffffffffffffffffffffffffff1614158015611b9a57508273ffffffffffffffffffffffffffffffffffffffff168173ffffffffffffffffffffffffffffffffffffffff1614155b8015611bad5750611bab8184610f10565b155b15611bef57826040517fa9fbf51f000000000000000000000000000000000000000000000000000000008152600401611be6919061261c565b60405180910390fd5b8115611c5157838573ffffffffffffffffffffffffffffffffffffffff168273ffffffffffffffffffffffffffffffffffffffff167f8c5be1e5ebec7d5bd14f71427d1e84f3dd0314c0f7b2291e5b200ac8c7c3b92560405160405180910390a45b505b836004600085815260200190815260200160002060006101000a81548173ffffffffffffffffffffffffffffffffffffffff021916908373ffffffffffffffffffffffffffffffffffffffff16021790555050505050565b600080611cb784611aa9565b9050600073ffffffffffffffffffffffffffffffffffffffff168373ffffffffffffffffffffffffffffffffffffffff1614611cf957611cf8818486612179565b5b600073ffffffffffffffffffffffffffffffffffffffff168173ffffffffffffffffffffffffffffffffffffffff1614611d8a57611d3b600085600080611ae6565b6001600360008373ffffffffffffffffffffffffffffffffffffffff1673ffffffffffffffffffffffffffffffffffffffff168152602001908152602001600020600082825403925050819055505b600073ffffffffffffffffffffffffffffffffffffffff168573ffffffffffffffffffffffffffffffffffffffff1614611e0d576001600360008773ffffffffffffffffffffffffffffffffffffffff1673ffffffffffffffffffffffffffffffffffffffff168152602001908152602001600020600082825401925050819055505b846002600086815260200190815260200160002060006101000a81548173ffffffffffffffffffffffffffffffffffffffff021916908373ffffffffffffffffffffffffffffffffffffffff160217905550838573ffffffffffffffffffffffffffffffffffffffff168273ffffffffffffffffffffffffffffffffffffffff167fddf252ad1be2c89b69c2b068fc378daa952ba7f163c4a11628f55a4df523b3ef60405160405180910390a4809150509392505050565b6008805490506009600083815260200190815260200160002081905550600881908060018154018082558091505060019003906000526020600020016000909190919091505550565b6000611f1983610b91565b90506000600760008481526020019081526020016000205490506000600660008673ffffffffffffffffffffffffffffffffffffffff1673ffffffffffffffffffffffffffffffffffffffff1681526020019081526020016000209050828214611fc55760008160008581526020019081526020016000205490508082600085815260200190815260200160002081905550826007600083815260200190815260200160002081905550505b6007600085815260200190815260200160002060009055806000848152602001908152602001600020600090555050505050565b6000600160088054905061200d91906133e3565b905060006009600084815260200190815260200160002054905060006008838154811061203d5761203c612c5b565b5b90600052602060002001549050806008838154811061205f5761205e612c5b565b5b9060005260206000200181905550816009600083815260200190815260200160002081905550600960008581526020019081526020016000206000905560088054806120ae576120ad613417565b5b6001900381819060005260206000200160009055905550505050565b600060016120d784610b91565b6120e191906133e3565b905081600660008573ffffffffffffffffffffffffffffffffffffffff1673ffffffffffffffffffffffffffffffffffffffff168152602001908152602001600020600083815260200190815260200160002081905550806007600084815260200190815260200160002081905550505050565b61215f838361223d565b61217461216a611317565b6000858585611728565b505050565b612184838383612336565b61223857600073ffffffffffffffffffffffffffffffffffffffff168373ffffffffffffffffffffffffffffffffffffffff16036121f957806040517f7e2732890000000000000000000000000000000000000000000000000000000081526004016121f091906126b2565b60405180910390fd5b81816040517f177e802f00000000000000000000000000000000000000000000000000000000815260040161222f929190612c32565b60405180910390fd5b505050565b600073ffffffffffffffffffffffffffffffffffffffff168273ffffffffffffffffffffffffffffffffffffffff16036122af5760006040517f64a0ae920000000000000000000000000000000000000000000000000000000081526004016122a6919061261c565b60405180910390fd5b60006122bd83836000611331565b9050600073ffffffffffffffffffffffffffffffffffffffff168173ffffffffffffffffffffffffffffffffffffffff16146123315760006040517f73c6ac6e000000000000000000000000000000000000000000000000000000008152600401612328919061261c565b60405180910390fd5b505050565b60008073ffffffffffffffffffffffffffffffffffffffff168373ffffffffffffffffffffffffffffffffffffffff16141580156123ee57508273ffffffffffffffffffffffffffffffffffffffff168473ffffffffffffffffffffffffffffffffffffffff1614806123af57506123ae8484610f10565b5b806123ed57508273ffffffffffffffffffffffffffffffffffffffff166123d5836112da565b73ffffffffffffffffffffffffffffffffffffffff16145b5b90509392505050565b6000604051905090565b600080fd5b600080fd5b60007fffffffff0000000000000000000000000000000000000000000000000000000082169050919050565b6124408161240b565b811461244b57600080fd5b50565b60008135905061245d81612437565b92915050565b60006020828403121561247957612478612401565b5b60006124878482850161244e565b91505092915050565b60008115159050919050565b6124a581612490565b82525050565b60006020820190506124c0600083018461249c565b92915050565b600081519050919050565b600082825260208201905092915050565b60005b838110156125005780820151818401526020810190506124e5565b60008484015250505050565b6000601f19601f8301169050919050565b6000612528826124c6565b61253281856124d1565b93506125428185602086016124e2565b61254b8161250c565b840191505092915050565b60006020820190508181036000830152612570818461251d565b905092915050565b6000819050919050565b61258b81612578565b811461259657600080fd5b50565b6000813590506125a881612582565b92915050565b6000602082840312156125c4576125c3612401565b5b60006125d284828501612599565b91505092915050565b600073ffffffffffffffffffffffffffffffffffffffff82169050919050565b6000612606826125db565b9050919050565b612616816125fb565b82525050565b6000602082019050612631600083018461260d565b92915050565b612640816125fb565b811461264b57600080fd5b50565b60008135905061265d81612637565b92915050565b6000806040838503121561267a57612679612401565b5b60006126888582860161264e565b925050602061269985828601612599565b9150509250929050565b6126ac81612578565b82525050565b60006020820190506126c760008301846126a3565b92915050565b6000806000606084860312156126e6576126e5612401565b5b60006126f48682870161264e565b93505060206127058682870161264e565b925050604061271686828701612599565b9150509250925092565b600080fd5b600080fd5b7f4e487b7100000000000000000000000000000000000000000000000000000000600052604160045260246000fd5b6127628261250c565b810181811067ffffffffffffffff821117156127815761278061272a565b5b80604052505050565b60006127946123f7565b90506127a08282612759565b919050565b600067ffffffffffffffff8211156127c0576127bf61272a565b5b6127c98261250c565b9050602081019050919050565b82818337600083830152505050565b60006127f86127f3846127a5565b61278a565b90508281526020810184848401111561281457612813612725565b5b61281f8482856127d6565b509392505050565b600082601f83011261283c5761283b612720565b5b813561284c8482602086016127e5565b91505092915050565b60006020828403121561286b5761286a612401565b5b600082013567ffffffffffffffff81111561288957612888612406565b5b61289584828501612827565b91505092915050565b600080600080608085870312156128b8576128b7612401565b5b600085013567ffffffffffffffff8111156128d6576128d5612406565b5b6128e287828801612827565b94505060206128f387828801612599565b935050604061290487828801612599565b925050606085013567ffffffffffffffff81111561292557612924612406565b5b61293187828801612827565b91505092959194509250565b60006020828403121561295357612952612401565b5b60006129618482850161264e565b91505092915050565b61297381612490565b811461297e57600080fd5b50565b6000813590506129908161296a565b92915050565b600080604083850312156129ad576129ac612401565b5b60006129bb8582860161264e565b92505060206129cc85828601612981565b9150509250929050565b600067ffffffffffffffff8211156129f1576129f061272a565b5b6129fa8261250c565b9050602081019050919050565b6000612a1a612a15846129d6565b61278a565b905082815260208101848484011115612a3657612a35612725565b5b612a418482856127d6565b509392505050565b600082601f830112612a5e57612a5d612720565b5b8135612a6e848260208601612a07565b91505092915050565b60008060008060808587031215612a9157612a90612401565b5b6000612a9f8782880161264e565b9450506020612ab08782880161264e565b9350506040612ac187828801612599565b925050606085013567ffffffffffffffff811115612ae257612ae1612406565b5b612aee87828801612a49565b91505092959194509250565b60008060408385031215612b1157612b10612401565b5b6000612b1f8582860161264e565b9250506020612b308582860161264e565b9150509250929050565b600060a0820190508181036000830152612b54818861251d565b9050612b6360208301876126a3565b612b7060408301866126a3565b612b7d60608301856126a3565b8181036080830152612b8f818461251d565b90509695505050505050565b7f4e487b7100000000000000000000000000000000000000000000000000000000600052602260045260246000fd5b60006002820490506001821680612be257607f821691505b602082108103612bf557612bf4612b9b565b5b50919050565b6000606082019050612c10600083018661260d565b612c1d60208301856126a3565b612c2a604083018461260d565b949350505050565b6000604082019050612c47600083018561260d565b612c5460208301846126a3565b9392505050565b7f4e487b7100000000000000000000000000000000000000000000000000000000600052603260045260246000fd5b60008190508160005260206000209050919050565b60006020601f8301049050919050565b600082821b905092915050565b600060088302612cec7fffffffffffffffffffffffffffffffffffffffffffffffffffffffffffffffff82612caf565b612cf68683612caf565b95508019841693508086168417925050509392505050565b6000819050919050565b6000612d33612d2e612d2984612578565b612d0e565b612578565b9050919050565b6000819050919050565b612d4d83612d18565b612d61612d5982612d3a565b848454612cbc565b825550505050565b600090565b612d76612d69565b612d81818484612d44565b505050565b5b81811015612da557612d9a600082612d6e565b600181019050612d87565b5050565b601f821115612dea57612dbb81612c8a565b612dc484612c9f565b81016020851015612dd3578190505b612de7612ddf85612c9f565b830182612d86565b50505b505050565b600082821c905092915050565b6000612e0d60001984600802612def565b1980831691505092915050565b6000612e268383612dfc565b9150826002028217905092915050565b612e3f826124c6565b67ffffffffffffffff811115612e5857612e5761272a565b5b612e628254612bca565b612e6d828285612da9565b600060209050601f831160018114612ea05760008415612e8e578287015190505b612e988582612e1a565b865550612f00565b601f198416612eae86612c8a565b60005b82811015612ed657848901518255600182019150602085019450602081019050612eb1565b86831015612ef35784890151612eef601f891682612dfc565b8355505b6001600288020188555050505b505050505050565b7f4e487b7100000000000000000000000000000000000000000000000000000000600052601160045260246000fd5b6000612f4282612578565b91507fffffffffffffffffffffffffffffffffffffffffffffffffffffffffffffffff8203612f7457612f73612f08565b5b600182019050919050565b7f496e76616c6964207469636b6574207479706500000000000000000000000000600082015250565b6000612fb56013836124d1565b9150612fc082612f7f565b602082019050919050565b60006020820190508181036000830152612fe481612fa8565b9050919050565b7f496e73756666696369656e742066756e64730000000000000000000000000000600082015250565b60006130216012836124d1565b915061302c82612feb565b602082019050919050565b6000602082019050818103600083015261305081613014565b9050919050565b7f4d617820737570706c7920726561636865640000000000000000000000000000600082015250565b600061308d6012836124d1565b915061309882613057565b602082019050919050565b600060208201905081810360008301526130bc81613080565b9050919050565b60006130ce82612578565b91506130d983612578565b92508282019050808211156130f1576130f0612f08565b5b92915050565b7f546f6b656e20646f6573206e6f74206578697374000000000000000000000000600082015250565b600061312d6014836124d1565b9150613138826130f7565b602082019050919050565b6000602082019050818103600083015261315c81613120565b9050919050565b600081905092915050565b6000815461317b81612bca565b6131858186613163565b945060018216600081146131a057600181146131b5576131e8565b60ff19831686528115158202860193506131e8565b6131be85612c8a565b60005b838110156131e0578154818901526001820191506020810190506131c1565b838801955050505b50505092915050565b60006131fc826124c6565b6132068185613163565b93506132168185602086016124e2565b80840191505092915050565b600061322e828561316e565b915061323a82846131f1565b91508190509392505050565b600081519050919050565b600082825260208201905092915050565b600061326d82613246565b6132778185613251565b93506132878185602086016124e2565b6132908161250c565b840191505092915050565b60006080820190506132b0600083018761260d565b6132bd602083018661260d565b6132ca60408301856126a3565b81810360608301526132dc8184613262565b905095945050505050565b6000815190506132f681612437565b92915050565b60006020828403121561331257613311612401565b5b6000613320848285016132e7565b91505092915050565b7f4e487b7100000000000000000000000000000000000000000000000000000000600052601260045260246000fd5b600061336382612578565b915061336e83612578565b92508261337e5761337d613329565b5b828204905092915050565b600061339482612578565b915061339f83612578565b9250826133af576133ae613329565b5b828206905092915050565b60006133c582612578565b9150600082036133d8576133d7612f08565b5b600182039050919050565b60006133ee82612578565b91506133f983612578565b925082820390508181111561341157613410612f08565b5b92915050565b7f4e487b7100000000000000000000000000000000000000000000000000000000600052603160045260246000fdfea264697066735822122047d42c8e2f1bb278dd8dc7cf3370e49a34100bcd07cb7637079dff5e30d32a7664736f6c63430008140033",
  "linkReferences": {},
  "deployedLinkReferences": {}
}