{
  "_format": "hh-sol-artifact-1",
  "contractName": "AccessPass",
  "sourceName": "contracts/AccessPass.sol",
  "abi": [
    {
      "inputs": [
        {
          "internalType": "string",
          "name": "baseURI",
          "type": "string"
        }
      ],
      "stateMutability": "nonpayable",
      "type": "constructor"
    },
    {
      "inputs": [],
      "name": "ERC721EnumerableForbiddenBatchMint",
      "type": "error"
    },
    {
      "inputs": [
        {
          "internalType": "address",
          "name": "sender",
          "type": "address"
        },
        {
          "internalType": "uint256",
          "name": "tokenId",
          "type": "uint256"
        },
        {
          "internalType": "address",
          "name": "owner",
          "type": "address"
        }
      ],
      "name": "ERC721IncorrectOwner",
      "type": "error"
    },
    {
      "inputs": [
        {
          "internalType": "address",
          "name": "operator",
          "type": "address"
        },
        {
          "internalType": "uint256",
          "name": "tokenId",
          "type": "uint256"
        }
      ],
      "name": "ERC721InsufficientApproval",
      "type": "error"
    },
    {
      "inputs": [
        {
          "internalType": "address",
          "name": "approver",
          "type": "address"
        }
      ],
      "name": "ERC721InvalidApprover",
      "type": "error"
    },
    {
      "inputs": [
        {
          "internalType": "address",
          "name": "operator",
          "type": "address"
        }
      ],
      "name": "ERC721InvalidOperator",
      "type": "error"
    },
    {
      "inputs": [
        {
          "internalType": "address",
          "name": "owner",
          "type": "address"
        }
      ],
      "name": "ERC721InvalidOwner",
      "type": "error"
    },
    {
      "inputs": [
        {
          "internalType": "address",
          "name": "receiver",
          "type": "address"
        }
      ],
      "name": "ERC721InvalidReceiver",
      "type": "error"
    },
    {
      "inputs": [
        {
          "internalType": "address",
          "name": "sender",
          "type": "address"
        }
      ],
      "name": "ERC721InvalidSender",
      "type": "error"
    },
    {
      "inputs": [
        {
          "internalType": "uint256",
          "name": "tokenId",
          "type": "uint256"
        }
      ],
      "name": "ERC721NonexistentToken",
      "type": "error"
    },
    {
      "inputs": [
        {
          "internalType": "address",
          "name": "owner",
          "type": "address"
        },
        {
          "internalType": "uint256",
          "name": "index",
          "type": "uint256"
        }
      ],
      "name": "ERC721OutOfBoundsIndex",
      "type": "error"
    },
    {
      "inputs": [
        {
          "internalType": "address",
          "name": "owner",
          "type": "address"
        }
      ],
      "name": "OwnableInvalidOwner",
      "type": "error"
    },
    {
      "inputs": [
        {
          "internalType": "address",
          "name": "account",
          "type": "address"
        }
      ],
      "name": "OwnableUnauthorizedAccount",
      "type": "error"
    },
    {
      "anonymous": false,
      "inputs": [
        {
          "indexed": true,
          "internalType": "address",
          "name": "owner",
          "type": "address"
        },
        {
          "indexed": true,
          "internalType": "address",
          "name": "approved",
          "type": "address"
        },
        {
          "indexed": true,
          "internalType": "uint256",
          "name": "tokenId",
          "type": "uint256"
        }
      ],
      "name": "Approval",
      "type": "event"
    },
    {
      "anonymous": false,
      "inputs": [
        {
          "indexed": true,
          "internalType": "address",
          "name": "owner",
          "type": "address"
        },
        {
          "indexed": true,
          "internalType": "address",
          "name": "operator",
          "type": "address"
        },
        {
          "indexed": false,
          "internalType": "bool",
          "name": "approved",
          "type": "bool"
        }
      ],
      "name": "ApprovalForAll",
      "type": "event"
    },
    {
      "anonymous": false,
      "inputs": [
        {
          "indexed": true,
          "internalType": "address",
          "name": "previousOwner",
          "type": "address"
        },
        {
          "indexed": true,
          "internalType": "address",
          "name": "newOwner",
          "type": "address"
        }
      ],
      "name": "OwnershipTransferred",
      "type": "event"
    },
    {
      "anonymous": false,
      "inputs": [
        {
          "indexed": true,
          "internalType": "address",
          "name": "from",
          "type": "address"
        },
        {
          "indexed": true,
          "internalType": "address",
          "name": "to",
          "type": "address"
        },
        {
          "indexed": true,
          "internalType": "uint256",
          "name": "tokenId",
          "type": "uint256"
        }
      ],
      "name": "Transfer",
      "type": "event"
    },
    {
      "inputs": [],
      "name": "MAX_SUPPLY",
      "outputs": [
        {
          "internalType": "uint256",
          "name": "",
          "type": "uint256"
        }
      ],
      "stateMutability": "view",
      "type": "function"
    },
    {
      "inputs": [
        {
          "internalType": "address",
          "name": "to",
          "type": "address"
        },
        {
          "internalType": "uint256",
          "name": "tokenId",
          "type": "uint256"
        }
      ],
      "name": "approve",
      "outputs": [],
      "stateMutability": "nonpayable",
      "type": "function"
    },
    {
      "inputs": [
        {
          "internalType": "address",
          "name": "owner",
          "type": "address"
        }
      ],
      "name": "balanceOf",
      "outputs": [
        {
          "internalType": "uint256",
          "name": "",
          "type": "uint256"
        }
      ],
      "stateMutability": "view",
      "type": "function"
    },
    {
      "inputs": [
        {
          "internalType": "uint256",
          "name": "tokenId",
          "type": "uint256"
        }
      ],
      "name": "getApproved",
      "outputs": [
        {
          "internalType": "address",
          "name": "",
          "type": "address"
        }
      ],
      "stateMutability": "view",
      "type": "function"
    },
    {
      "inputs": [
        {
          "internalType": "address",
          "name": "owner",
          "type": "address"
        },
        {
          "internalType": "address",
          "name": "operator",
          "type": "address"
        }
      ],
      "name": "isApprovedForAll",
      "outputs": [
        {
          "internalType": "bool",
          "name": "",
          "type": "bool"
        }
      ],
      "stateMutability": "view",
      "type": "function"
    },
    {
      "inputs": [],
      "name": "mint",
      "outputs": [],
      "stateMutability": "payable",
      "type": "function"
    },
    {
      "inputs": [],
      "name": "mintPrice",
      "outputs": [
        {
          "internalType": "uint256",
          "name": "",
          "type": "uint256"
        }
      ],
      "stateMutability": "view",
      "type": "function"
    },
    {
      "inputs": [],
      "name": "name",
      "outputs": [
        {
          "internalType": "string",
          "name": "",
          "type": "string"
        }
      ],
      "stateMutability": "view",
      "type": "function"
    },
    {
      "inputs": [],
      "name": "owner",
      "outputs": [
        {
          "internalType": "address",
          "name": "",
          "type": "address"
        }
      ],
      "stateMutability": "view",
      "type": "function"
    },
    {
      "inputs": [
        {
          "internalType": "uint256",
          "name": "tokenId",
          "type": "uint256"
        }
      ],
      "name": "ownerOf",
      "outputs": [
        {
          "internalType": "address",
          "name": "",
          "type": "address"
        }
      ],
      "stateMutability": "view",
      "type": "function"
    },
    {
      "inputs": [],
      "name": "renounceOwnership",
      "outputs": [],
      "stateMutability": "nonpayable",
      "type": "function"
    },
    {
      "inputs": [
        {
          "internalType": "address",
          "name": "from",
          "type": "address"
        },
        {
          "internalType": "address",
          "name": "to",
          "type": "address"
        },
        {
          "internalType": "uint256",
          "name": "tokenId",
          "type": "uint256"
        }
      ],
      "name": "safeTransferFrom",
      "outputs": [],
      "stateMutability": "nonpayable",
      "type": "function"
    },
    {
      "inputs": [
        {
          "internalType": "address",
          "name": "from",
          "type": "address"
        },
        {
          "internalType": "address",
          "name": "to",
          "type": "address"
        },
        {
          "internalType": "uint256",
          "name": "tokenId",
          "type": "uint256"
        },
        {
          "internalType": "bytes",
          "name": "data",
          "type": "bytes"
        }
      ],
      "name": "safeTransferFrom",
      "outputs": [],
      "stateMutability": "nonpayable",
      "type": "function"
    },
    {
      "inputs": [
        {
          "internalType": "address",
          "name": "operator",
          "type": "address"
        },
        {
          "internalType": "bool",
          "name": "approved",
          "type": "bool"
        }
      ],
      "name": "setApprovalForAll",
      "outputs": [],
      "stateMutability": "nonpayable",
      "type": "function"
    },
    {
      "inputs": [
        {
          "internalType": "string",
          "name": "baseURI",
          "type": "string"
        }
      ],
      "name": "setBaseURI",
      "outputs": [],
      "stateMutability": "nonpayable",
      "type": "function"
    },
    {
      "inputs": [
        {
          "internalType": "uint256",
          "name": "newPrice",
          "type": "uint256"
        }
      ],
      "name": "setMintPrice",
      "outputs": [],
      "stateMutability": "nonpayable",
      "type": "function"
    },
    {
      "inputs": [
        {
          "internalType": "bytes4",
          "name": "interfaceId",
          "type": "bytes4"
        }
      ],
      "name": "supportsInterface",
      "outputs": [
        {
          "internalType": "bool",
          "name": "",
          "type": "bool"
        }
      ],
      "stateMutability": "view",
      "type": "function"
    },
    {
      "inputs": [],
      "name": "symbol",
      "outputs": [
        {
          "internalType": "string",
          "name": "",
          "type": "string"
        }
      ],
      "stateMutability": "view",
      "type": "function"
    },
    {
      "inputs": [
        {
          "internalType": "uint256",
          "name": "index",
          "type": "uint256"
        }
      ],
      "name": "tokenByIndex",
      "outputs": [
        {
          "internalType": "uint256",
          "name": "",
          "type": "uint256"
        }
      ],
      "stateMutability": "view",
      "type": "function"
    },
    {
      "inputs": [
        {
          "internalType": "address",
          "name": "owner",
          "type": "address"
        },
        {
          "internalType": "uint256",
          "name": "index",
          "type": "uint256"
        }
      ],
      "name": "tokenOfOwnerByIndex",
      "outputs": [
        {
          "internalType": "uint256",
          "name": "",
          "type": "uint256"
        }
      ],
      "stateMutability": "view",
      "type": "function"
    },
    {
      "inputs": [
        {
          "internalType": "uint256",
          "name": "tokenId",
          "type": "uint256"
        }
      ],
      "name": "tokenURI",
      "outputs": [
        {
          "internalType": "string",
          "name": "",
          "type": "string"
        }
      ],
      "stateMutability": "view",
      "type": "function"
    },
    {
      "inputs": [],
      "name": "totalSupply",
      "outputs": [
        {
          "internalType": "uint256",
          "name": "",
          "type": "uint256"
        }
      ],
      "stateMutability": "view",
      "type": "function"
    },
    {
      "inputs": [
        {
          "internalType": "address",
          "name": "from",
          "type": "address"
        },
        {
          "internalType": "address",
          "name": "to",
          "type": "address"
        },
        {
          "internalType": "uint256",
          "name": "tokenId",
          "type": "uint256"
        }
      ],
      "name": "transferFrom",
      "outputs": [],
      "stateMutability": "nonpayable",
      "type": "function"
    },
    {
      "inputs": [
        {
          "internalType": "address",
          "name": "newOwner",
          "type": "address"
        }
      ],
      "name": "transferOwnership",
      "outputs": [],
      "stateMutability": "nonpayable",
      "type": "function"
    },
    {
      "inputs": [],
      "name": "withdraw",
      "outputs": [],
      "stateMutability": "nonpayable",
      "type": "function"
    }
  ],
  "bytecode": "0x6080604052662386f26fc10000600b556000600c553480156200002157600080fd5b506040516200370f3803806200370f8339818101604052810190620000479190620003d3565b336040518060400160405280600a81526020017f41636365737350617373000000000000000000000000000000000000000000008152506040518060400160405280600481526020017f41435054000000000000000000000000000000000000000000000000000000008152508160009081620000c591906200066f565b508060019081620000d791906200066f565b505050600073ffffffffffffffffffffffffffffffffffffffff168173ffffffffffffffffffffffffffffffffffffffff16036200014f5760006040517f1e4fbdf70000000000000000000000000000000000000000000000000000000081526004016200014691906200079b565b60405180910390fd5b62000160816200017a60201b60201c565b5080600d90816200017291906200066f565b5050620007b8565b6000600a60009054906101000a900473ffffffffffffffffffffffffffffffffffffffff16905081600a60006101000a81548173ffffffffffffffffffffffffffffffffffffffff021916908373ffffffffffffffffffffffffffffffffffffffff1602179055508173ffffffffffffffffffffffffffffffffffffffff168173ffffffffffffffffffffffffffffffffffffffff167f8be0079c531659141344cd1fd0a4f28419497f9722a3daafe3b4186f6b6457e060405160405180910390a35050565b6000604051905090565b600080fd5b600080fd5b600080fd5b600080fd5b6000601f19601f8301169050919050565b7f4e487b7100000000000000000000000000000000000000000000000000000000600052604160045260246000fd5b620002a9826200025e565b810181811067ffffffffffffffff82111715620002cb57620002ca6200026f565b5b80604052505050565b6000620002e062000240565b9050620002ee82826200029e565b919050565b600067ffffffffffffffff8211156200031157620003106200026f565b5b6200031c826200025e565b9050602081019050919050565b60005b83811015620003495780820151818401526020810190506200032c565b60008484015250505050565b60006200036c6200036684620002f3565b620002d4565b9050828152602081018484840111156200038b576200038a62000259565b5b6200039884828562000329565b509392505050565b600082601f830112620003b857620003b762000254565b5b8151620003ca84826020860162000355565b91505092915050565b600060208284031215620003ec57620003eb6200024a565b5b600082015167ffffffffffffffff8111156200040d576200040c6200024f565b5b6200041b84828501620003a0565b91505092915050565b600081519050919050565b7f4e487b7100000000000000000000000000000000000000000000000000000000600052602260045260246000fd5b600060028204905060018216806200047757607f821691505b6020821081036200048d576200048c6200042f565b5b50919050565b60008190508160005260206000209050919050565b60006020601f8301049050919050565b600082821b905092915050565b600060088302620004f77fffffffffffffffffffffffffffffffffffffffffffffffffffffffffffffffff82620004b8565b620005038683620004b8565b95508019841693508086168417925050509392505050565b6000819050919050565b6000819050919050565b6000620005506200054a62000544846200051b565b62000525565b6200051b565b9050919050565b6000819050919050565b6200056c836200052f565b620005846200057b8262000557565b848454620004c5565b825550505050565b600090565b6200059b6200058c565b620005a881848462000561565b505050565b5b81811015620005d057620005c460008262000591565b600181019050620005ae565b5050565b601f8211156200061f57620005e98162000493565b620005f484620004a8565b8101602085101562000604578190505b6200061c6200061385620004a8565b830182620005ad565b50505b505050565b600082821c905092915050565b6000620006446000198460080262000624565b1980831691505092915050565b60006200065f838362000631565b9150826002028217905092915050565b6200067a8262000424565b67ffffffffffffffff8111156200069657620006956200026f565b5b620006a282546200045e565b620006af828285620005d4565b600060209050601f831160018114620006e75760008415620006d2578287015190505b620006de858262000651565b8655506200074e565b601f198416620006f78662000493565b60005b828110156200072157848901518255600182019150602085019450602081019050620006fa565b868310156200074157848901516200073d601f89168262000631565b8355505b6001600288020188555050505b505050505050565b600073ffffffffffffffffffffffffffffffffffffffff82169050919050565b6000620007838262000756565b9050919050565b620007958162000776565b82525050565b6000602082019050620007b260008301846200078a565b92915050565b612f4780620007c86000396000f3fe6080604052600436106101665760003560e01c806355f804b3116100d157806395d89b411161008a578063c87b56dd11610064578063c87b56dd14610509578063e985e9c514610546578063f2fde38b14610583578063f4a0a528146105ac57610166565b806395d89b411461048c578063a22cb465146104b7578063b88d4fde146104e057610166565b806355f804b31461037c5780636352211e146103a55780636817c76c146103e257806370a082311461040d578063715018a61461044a5780638da5cb5b1461046157610166565b806323b872dd1161012357806323b872dd1461026e5780632f745c591461029757806332cb6b0c146102d45780633ccfd60b146102ff57806342842e0e146103165780634f6ccce71461033f57610166565b806301ffc9a71461016b57806306fdde03146101a8578063081812fc146101d3578063095ea7b3146102105780631249c58b1461023957806318160ddd14610243575b600080fd5b34801561017757600080fd5b50610192600480360381019061018d9190612248565b6105d5565b60405161019f9190612290565b60405180910390f35b3480156101b457600080fd5b506101bd61064f565b6040516101ca919061233b565b60405180910390f35b3480156101df57600080fd5b506101fa60048036038101906101f59190612393565b6106e1565b6040516102079190612401565b60405180910390f35b34801561021c57600080fd5b5061023760048036038101906102329190612448565b6106fd565b005b610241610713565b005b34801561024f57600080fd5b506102586107cf565b6040516102659190612497565b60405180910390f35b34801561027a57600080fd5b50610295600480360381019061029091906124b2565b6107dc565b005b3480156102a357600080fd5b506102be60048036038101906102b99190612448565b6108de565b6040516102cb9190612497565b60405180910390f35b3480156102e057600080fd5b506102e9610987565b6040516102f69190612497565b60405180910390f35b34801561030b57600080fd5b5061031461098d565b005b34801561032257600080fd5b5061033d600480360381019061033891906124b2565b6109e5565b005b34801561034b57600080fd5b5061036660048036038101906103619190612393565b610a05565b6040516103739190612497565b60405180910390f35b34801561038857600080fd5b506103a3600480360381019061039e919061263a565b610a7b565b005b3480156103b157600080fd5b506103cc60048036038101906103c79190612393565b610a96565b6040516103d99190612401565b60405180910390f35b3480156103ee57600080fd5b506103f7610aa8565b6040516104049190612497565b60405180910390f35b34801561041957600080fd5b50610434600480360381019061042f9190612683565b610aae565b6040516104419190612497565b60405180910390f35b34801561045657600080fd5b5061045f610b68565b005b34801561046d57600080fd5b50610476610b7c565b6040516104839190612401565b60405180910390f35b34801561049857600080fd5b506104a1610ba6565b6040516104ae919061233b565b60405180910390f35b3480156104c357600080fd5b506104de60048036038101906104d991906126dc565b610c38565b005b3480156104ec57600080fd5b50610507600480360381019061050291906127bd565b610c4e565b005b34801561051557600080fd5b50610530600480360381019061052b9190612393565b610c73565b60405161053d919061233b565b60405180910390f35b34801561055257600080fd5b5061056d60048036038101906105689190612840565b610cdc565b60405161057a9190612290565b60405180910390f35b34801561058f57600080fd5b506105aa60048036038101906105a59190612683565b610d70565b005b3480156105b857600080fd5b506105d360048036038101906105ce9190612393565b610df6565b005b60007f780e9d63000000000000000000000000000000000000000000000000000000007bffffffffffffffffffffffffffffffffffffffffffffffffffffffff1916827bffffffffffffffffffffffffffffffffffffffffffffffffffffffff19161480610648575061064782610e08565b5b9050919050565b60606000805461065e906128af565b80601f016020809104026020016040519081016040528092919081815260200182805461068a906128af565b80156106d75780601f106106ac576101008083540402835291602001916106d7565b820191906000526020600020905b8154815290600101906020018083116106ba57829003601f168201915b5050505050905090565b60006106ec82610eea565b506106f682610f72565b9050919050565b61070f828261070a610faf565b610fb7565b5050565b6103e861071e6107cf565b1061075e576040517f08c379a00000000000000000000000000000000000000000000000000000000081526004016107559061292c565b60405180910390fd5b600b543410156107a3576040517f08c379a000000000000000000000000000000000000000000000000000000000815260040161079a90612998565b60405180910390fd5b6000600c549050600c60008154809291906107bd906129e7565b91905055506107cc3382610fc9565b50565b6000600880549050905090565b600073ffffffffffffffffffffffffffffffffffffffff168273ffffffffffffffffffffffffffffffffffffffff160361084e5760006040517f64a0ae920000000000000000000000000000000000000000000000000000000081526004016108459190612401565b60405180910390fd5b6000610862838361085d610faf565b610fe7565b90508373ffffffffffffffffffffffffffffffffffffffff168173ffffffffffffffffffffffffffffffffffffffff16146108d8578382826040517f64283d7b0000000000000000000000000000000000000000000000000000000081526004016108cf93929190612a2f565b60405180910390fd5b50505050565b60006108e983610aae565b821061092e5782826040517fa57d13dc000000000000000000000000000000000000000000000000000000008152600401610925929190612a66565b60405180910390fd5b600660008473ffffffffffffffffffffffffffffffffffffffff1673ffffffffffffffffffffffffffffffffffffffff168152602001908152602001600020600083815260200190815260200160002054905092915050565b6103e881565b610995611104565b61099d610b7c565b73ffffffffffffffffffffffffffffffffffffffff166108fc479081150290604051600060405180830381858888f193505050501580156109e2573d6000803e3d6000fd5b50565b610a0083838360405180602001604052806000815250610c4e565b505050565b6000610a0f6107cf565b8210610a55576000826040517fa57d13dc000000000000000000000000000000000000000000000000000000008152600401610a4c929190612a66565b60405180910390fd5b60088281548110610a6957610a68612a8f565b5b90600052602060002001549050919050565b610a83611104565b80600d9081610a929190612c6a565b5050565b6000610aa182610eea565b9050919050565b600b5481565b60008073ffffffffffffffffffffffffffffffffffffffff168273ffffffffffffffffffffffffffffffffffffffff1603610b215760006040517f89c62b64000000000000000000000000000000000000000000000000000000008152600401610b189190612401565b60405180910390fd5b600360008373ffffffffffffffffffffffffffffffffffffffff1673ffffffffffffffffffffffffffffffffffffffff168152602001908152602001600020549050919050565b610b70611104565b610b7a600061118b565b565b6000600a60009054906101000a900473ffffffffffffffffffffffffffffffffffffffff16905090565b606060018054610bb5906128af565b80601f0160208091040260200160405190810160405280929190818152602001828054610be1906128af565b8015610c2e5780601f10610c0357610100808354040283529160200191610c2e565b820191906000526020600020905b815481529060010190602001808311610c1157829003601f168201915b5050505050905090565b610c4a610c43610faf565b8383611251565b5050565b610c598484846107dc565b610c6d610c64610faf565b858585856113c0565b50505050565b6060610c7e82610eea565b506000610c89611571565b90506000815111610ca95760405180602001604052806000815250610cd4565b80610cb384611603565b604051602001610cc4929190612d78565b6040516020818303038152906040525b915050919050565b6000600560008473ffffffffffffffffffffffffffffffffffffffff1673ffffffffffffffffffffffffffffffffffffffff16815260200190815260200160002060008373ffffffffffffffffffffffffffffffffffffffff1673ffffffffffffffffffffffffffffffffffffffff16815260200190815260200160002060009054906101000a900460ff16905092915050565b610d78611104565b600073ffffffffffffffffffffffffffffffffffffffff168173ffffffffffffffffffffffffffffffffffffffff1603610dea5760006040517f1e4fbdf7000000000000000000000000000000000000000000000000000000008152600401610de19190612401565b60405180910390fd5b610df38161118b565b50565b610dfe611104565b80600b8190555050565b60007f80ac58cd000000000000000000000000000000000000000000000000000000007bffffffffffffffffffffffffffffffffffffffffffffffffffffffff1916827bffffffffffffffffffffffffffffffffffffffffffffffffffffffff19161480610ed357507f5b5e139f000000000000000000000000000000000000000000000000000000007bffffffffffffffffffffffffffffffffffffffffffffffffffffffff1916827bffffffffffffffffffffffffffffffffffffffffffffffffffffffff1916145b80610ee35750610ee2826116d1565b5b9050919050565b600080610ef68361173b565b9050600073ffffffffffffffffffffffffffffffffffffffff168173ffffffffffffffffffffffffffffffffffffffff1603610f6957826040517f7e273289000000000000000000000000000000000000000000000000000000008152600401610f609190612497565b60405180910390fd5b80915050919050565b60006004600083815260200190815260200160002060009054906101000a900473ffffffffffffffffffffffffffffffffffffffff169050919050565b600033905090565b610fc48383836001611778565b505050565b610fe382826040518060200160405280600081525061193d565b5050565b600080610ff5858585611961565b9050600073ffffffffffffffffffffffffffffffffffffffff168173ffffffffffffffffffffffffffffffffffffffff16036110395761103484611b7b565b611078565b8473ffffffffffffffffffffffffffffffffffffffff168173ffffffffffffffffffffffffffffffffffffffff1614611077576110768185611bc4565b5b5b600073ffffffffffffffffffffffffffffffffffffffff168573ffffffffffffffffffffffffffffffffffffffff16036110ba576110b584611caf565b6110f9565b8473ffffffffffffffffffffffffffffffffffffffff168173ffffffffffffffffffffffffffffffffffffffff16146110f8576110f78585611d80565b5b5b809150509392505050565b61110c610faf565b73ffffffffffffffffffffffffffffffffffffffff1661112a610b7c565b73ffffffffffffffffffffffffffffffffffffffff16146111895761114d610faf565b6040517f118cdaa70000000000000000000000000000000000000000000000000000000081526004016111809190612401565b60405180910390fd5b565b6000600a60009054906101000a900473ffffffffffffffffffffffffffffffffffffffff16905081600a60006101000a81548173ffffffffffffffffffffffffffffffffffffffff021916908373ffffffffffffffffffffffffffffffffffffffff1602179055508173ffffffffffffffffffffffffffffffffffffffff168173ffffffffffffffffffffffffffffffffffffffff167f8be0079c531659141344cd1fd0a4f28419497f9722a3daafe3b4186f6b6457e060405160405180910390a35050565b600073ffffffffffffffffffffffffffffffffffffffff168273ffffffffffffffffffffffffffffffffffffffff16036112c257816040517f5b08ba180000000000000000000000000000000000000000000000000000000081526004016112b99190612401565b60405180910390fd5b80600560008573ffffffffffffffffffffffffffffffffffffffff1673ffffffffffffffffffffffffffffffffffffffff16815260200190815260200160002060008473ffffffffffffffffffffffffffffffffffffffff1673ffffffffffffffffffffffffffffffffffffffff16815260200190815260200160002060006101000a81548160ff0219169083151502179055508173ffffffffffffffffffffffffffffffffffffffff168373ffffffffffffffffffffffffffffffffffffffff167f17307eab39ab6107e8899845ad3d59bd9653f200f220920489ca2b5937696c31836040516113b39190612290565b60405180910390a3505050565b60008373ffffffffffffffffffffffffffffffffffffffff163b111561156a578273ffffffffffffffffffffffffffffffffffffffff1663150b7a02868685856040518563ffffffff1660e01b815260040161141f9493929190612df1565b6020604051808303816000875af192505050801561145b57506040513d601f19601f820116820180604052508101906114589190612e52565b60015b6114df573d806000811461148b576040519150601f19603f3d011682016040523d82523d6000602084013e611490565b606091505b5060008151036114d757836040517f64a0ae920000000000000000000000000000000000000000000000000000000081526004016114ce9190612401565b60405180910390fd5b805181602001fd5b63150b7a0260e01b7bffffffffffffffffffffffffffffffffffffffffffffffffffffffff1916817bffffffffffffffffffffffffffffffffffffffffffffffffffffffff19161461156857836040517f64a0ae9200000000000000000000000000000000000000000000000000000000815260040161155f9190612401565b60405180910390fd5b505b5050505050565b6060600d8054611580906128af565b80601f01602080910402602001604051908101604052809291908181526020018280546115ac906128af565b80156115f95780601f106115ce576101008083540402835291602001916115f9565b820191906000526020600020905b8154815290600101906020018083116115dc57829003601f168201915b5050505050905090565b60606000600161161284611e0b565b01905060008167ffffffffffffffff8111156116315761163061250f565b5b6040519080825280601f01601f1916602001820160405280156116635781602001600182028036833780820191505090505b509050600082602001820190505b6001156116c6578080600190039150507f3031323334353637383961626364656600000000000000000000000000000000600a86061a8153600a85816116ba576116b9612e7f565b5b04945060008503611671575b819350505050919050565b60007f01ffc9a7000000000000000000000000000000000000000000000000000000007bffffffffffffffffffffffffffffffffffffffffffffffffffffffff1916827bffffffffffffffffffffffffffffffffffffffffffffffffffffffff1916149050919050565b60006002600083815260200190815260200160002060009054906101000a900473ffffffffffffffffffffffffffffffffffffffff169050919050565b80806117b15750600073ffffffffffffffffffffffffffffffffffffffff168273ffffffffffffffffffffffffffffffffffffffff1614155b156118e55760006117c184610eea565b9050600073ffffffffffffffffffffffffffffffffffffffff168373ffffffffffffffffffffffffffffffffffffffff161415801561182c57508273ffffffffffffffffffffffffffffffffffffffff168173ffffffffffffffffffffffffffffffffffffffff1614155b801561183f575061183d8184610cdc565b155b1561188157826040517fa9fbf51f0000000000000000000000000000000000000000000000000000000081526004016118789190612401565b60405180910390fd5b81156118e357838573ffffffffffffffffffffffffffffffffffffffff168273ffffffffffffffffffffffffffffffffffffffff167f8c5be1e5ebec7d5bd14f71427d1e84f3dd0314c0f7b2291e5b200ac8c7c3b92560405160405180910390a45b505b836004600085815260200190815260200160002060006101000a81548173ffffffffffffffffffffffffffffffffffffffff021916908373ffffffffffffffffffffffffffffffffffffffff16021790555050505050565b6119478383611f5e565b61195c611952610faf565b60008585856113c0565b505050565b60008061196d8461173b565b9050600073ffffffffffffffffffffffffffffffffffffffff168373ffffffffffffffffffffffffffffffffffffffff16146119af576119ae818486612057565b5b600073ffffffffffffffffffffffffffffffffffffffff168173ffffffffffffffffffffffffffffffffffffffff1614611a40576119f1600085600080611778565b6001600360008373ffffffffffffffffffffffffffffffffffffffff1673ffffffffffffffffffffffffffffffffffffffff168152602001908152602001600020600082825403925050819055505b600073ffffffffffffffffffffffffffffffffffffffff168573ffffffffffffffffffffffffffffffffffffffff1614611ac3576001600360008773ffffffffffffffffffffffffffffffffffffffff1673ffffffffffffffffffffffffffffffffffffffff168152602001908152602001600020600082825401925050819055505b846002600086815260200190815260200160002060006101000a81548173ffffffffffffffffffffffffffffffffffffffff021916908373ffffffffffffffffffffffffffffffffffffffff160217905550838573ffffffffffffffffffffffffffffffffffffffff168273ffffffffffffffffffffffffffffffffffffffff167fddf252ad1be2c89b69c2b068fc378daa952ba7f163c4a11628f55a4df523b3ef60405160405180910390a4809150509392505050565b6008805490506009600083815260200190815260200160002081905550600881908060018154018082558091505060019003906000526020600020016000909190919091505550565b6000611bcf83610aae565b90506000600760008481526020019081526020016000205490506000600660008673ffffffffffffffffffffffffffffffffffffffff1673ffffffffffffffffffffffffffffffffffffffff1681526020019081526020016000209050828214611c7b5760008160008581526020019081526020016000205490508082600085815260200190815260200160002081905550826007600083815260200190815260200160002081905550505b6007600085815260200190815260200160002060009055806000848152602001908152602001600020600090555050505050565b60006001600880549050611cc39190612eae565b9050600060096000848152602001908152602001600020549050600060088381548110611cf357611cf2612a8f565b5b906000526020600020015490508060088381548110611d1557611d14612a8f565b5b906000526020600020018190555081600960008381526020019081526020016000208190555060096000858152602001908152602001600020600090556008805480611d6457611d63612ee2565b5b6001900381819060005260206000200160009055905550505050565b60006001611d8d84610aae565b611d979190612eae565b905081600660008573ffffffffffffffffffffffffffffffffffffffff1673ffffffffffffffffffffffffffffffffffffffff168152602001908152602001600020600083815260200190815260200160002081905550806007600084815260200190815260200160002081905550505050565b600080600090507a184f03e93ff9f4daa797ed6e38ed64bf6a1f0100000000000000008310611e69577a184f03e93ff9f4daa797ed6e38ed64bf6a1f0100000000000000008381611e5f57611e5e612e7f565b5b0492506040810190505b6d04ee2d6d415b85acef81000000008310611ea6576d04ee2d6d415b85acef81000000008381611e9c57611e9b612e7f565b5b0492506020810190505b662386f26fc100008310611ed557662386f26fc100008381611ecb57611eca612e7f565b5b0492506010810190505b6305f5e1008310611efe576305f5e1008381611ef457611ef3612e7f565b5b0492506008810190505b6127108310611f23576127108381611f1957611f18612e7f565b5b0492506004810190505b60648310611f465760648381611f3c57611f3b612e7f565b5b0492506002810190505b600a8310611f55576001810190505b80915050919050565b600073ffffffffffffffffffffffffffffffffffffffff168273ffffffffffffffffffffffffffffffffffffffff1603611fd05760006040517f64a0ae92000000000000000000000000000000000000000000000000000000008152600401611fc79190612401565b60405180910390fd5b6000611fde83836000610fe7565b9050600073ffffffffffffffffffffffffffffffffffffffff168173ffffffffffffffffffffffffffffffffffffffff16146120525760006040517f73c6ac6e0000000000000000000000000000000000000000000000000000000081526004016120499190612401565b60405180910390fd5b505050565b61206283838361211b565b61211657600073ffffffffffffffffffffffffffffffffffffffff168373ffffffffffffffffffffffffffffffffffffffff16036120d757806040517f7e2732890000000000000000000000000000000000000000000000000000000081526004016120ce9190612497565b60405180910390fd5b81816040517f177e802f00000000000000000000000000000000000000000000000000000000815260040161210d929190612a66565b60405180910390fd5b505050565b60008073ffffffffffffffffffffffffffffffffffffffff168373ffffffffffffffffffffffffffffffffffffffff16141580156121d357508273ffffffffffffffffffffffffffffffffffffffff168473ffffffffffffffffffffffffffffffffffffffff16148061219457506121938484610cdc565b5b806121d257508273ffffffffffffffffffffffffffffffffffffffff166121ba83610f72565b73ffffffffffffffffffffffffffffffffffffffff16145b5b90509392505050565b6000604051905090565b600080fd5b600080fd5b60007fffffffff0000000000000000000000000000000000000000000000000000000082169050919050565b612225816121f0565b811461223057600080fd5b50565b6000813590506122428161221c565b92915050565b60006020828403121561225e5761225d6121e6565b5b600061226c84828501612233565b91505092915050565b60008115159050919050565b61228a81612275565b82525050565b60006020820190506122a56000830184612281565b92915050565b600081519050919050565b600082825260208201905092915050565b60005b838110156122e55780820151818401526020810190506122ca565b60008484015250505050565b6000601f19601f8301169050919050565b600061230d826122ab565b61231781856122b6565b93506123278185602086016122c7565b612330816122f1565b840191505092915050565b600060208201905081810360008301526123558184612302565b905092915050565b6000819050919050565b6123708161235d565b811461237b57600080fd5b50565b60008135905061238d81612367565b92915050565b6000602082840312156123a9576123a86121e6565b5b60006123b78482850161237e565b91505092915050565b600073ffffffffffffffffffffffffffffffffffffffff82169050919050565b60006123eb826123c0565b9050919050565b6123fb816123e0565b82525050565b600060208201905061241660008301846123f2565b92915050565b612425816123e0565b811461243057600080fd5b50565b6000813590506124428161241c565b92915050565b6000806040838503121561245f5761245e6121e6565b5b600061246d85828601612433565b925050602061247e8582860161237e565b9150509250929050565b6124918161235d565b82525050565b60006020820190506124ac6000830184612488565b92915050565b6000806000606084860312156124cb576124ca6121e6565b5b60006124d986828701612433565b93505060206124ea86828701612433565b92505060406124fb8682870161237e565b9150509250925092565b600080fd5b600080fd5b7f4e487b7100000000000000000000000000000000000000000000000000000000600052604160045260246000fd5b612547826122f1565b810181811067ffffffffffffffff821117156125665761256561250f565b5b80604052505050565b60006125796121dc565b9050612585828261253e565b919050565b600067ffffffffffffffff8211156125a5576125a461250f565b5b6125ae826122f1565b9050602081019050919050565b82818337600083830152505050565b60006125dd6125d88461258a565b61256f565b9050828152602081018484840111156125f9576125f861250a565b5b6126048482856125bb565b509392505050565b600082601f83011261262157612620612505565b5b81356126318482602086016125ca565b91505092915050565b6000602082840312156126505761264f6121e6565b5b600082013567ffffffffffffffff81111561266e5761266d6121eb565b5b61267a8482850161260c565b91505092915050565b600060208284031215612699576126986121e6565b5b60006126a784828501612433565b91505092915050565b6126b981612275565b81146126c457600080fd5b50565b6000813590506126d6816126b0565b92915050565b600080604083850312156126f3576126f26121e6565b5b600061270185828601612433565b9250506020612712858286016126c7565b9150509250929050565b600067ffffffffffffffff8211156127375761273661250f565b5b612740826122f1565b9050602081019050919050565b600061276061275b8461271c565b61256f565b90508281526020810184848401111561277c5761277b61250a565b5b6127878482856125bb565b509392505050565b600082601f8301126127a4576127a3612505565b5b81356127b484826020860161274d565b91505092915050565b600080600080608085870312156127d7576127d66121e6565b5b60006127e587828801612433565b94505060206127f687828801612433565b93505060406128078782880161237e565b925050606085013567ffffffffffffffff811115612828576128276121eb565b5b6128348782880161278f565b91505092959194509250565b60008060408385031215612857576128566121e6565b5b600061286585828601612433565b925050602061287685828601612433565b9150509250929050565b7f4e487b7100000000000000000000000000000000000000000000000000000000600052602260045260246000fd5b600060028204905060018216806128c757607f821691505b6020821081036128da576128d9612880565b5b50919050565b7f4d617820737570706c7920726561636865640000000000000000000000000000600082015250565b60006129166012836122b6565b9150612921826128e0565b602082019050919050565b6000602082019050818103600083015261294581612909565b9050919050565b7f496e73756666696369656e74207061796d656e74000000000000000000000000600082015250565b60006129826014836122b6565b915061298d8261294c565b602082019050919050565b600060208201905081810360008301526129b181612975565b9050919050565b7f4e487b7100000000000000000000000000000000000000000000000000000000600052601160045260246000fd5b60006129f28261235d565b91507fffffffffffffffffffffffffffffffffffffffffffffffffffffffffffffffff8203612a2457612a236129b8565b5b600182019050919050565b6000606082019050612a4460008301866123f2565b612a516020830185612488565b612a5e60408301846123f2565b949350505050565b6000604082019050612a7b60008301856123f2565b612a886020830184612488565b9392505050565b7f4e487b7100000000000000000000000000000000000000000000000000000000600052603260045260246000fd5b60008190508160005260206000209050919050565b60006020601f8301049050919050565b600082821b905092915050565b600060088302612b207fffffffffffffffffffffffffffffffffffffffffffffffffffffffffffffffff82612ae3565b612b2a8683612ae3565b95508019841693508086168417925050509392505050565b6000819050919050565b6000612b67612b62612b5d8461235d565b612b42565b61235d565b9050919050565b6000819050919050565b612b8183612b4c565b612b95612b8d82612b6e565b848454612af0565b825550505050565b600090565b612baa612b9d565b612bb5818484612b78565b505050565b5b81811015612bd957612bce600082612ba2565b600181019050612bbb565b5050565b601f821115612c1e57612bef81612abe565b612bf884612ad3565b81016020851015612c07578190505b612c1b612c1385612ad3565b830182612bba565b50505b505050565b600082821c905092915050565b6000612c4160001984600802612c23565b1980831691505092915050565b6000612c5a8383612c30565b9150826002028217905092915050565b612c73826122ab565b67ffffffffffffffff811115612c8c57612c8b61250f565b5b612c9682546128af565b612ca1828285612bdd565b600060209050601f831160018114612cd45760008415612cc2578287015190505b612ccc8582612c4e565b865550612d34565b601f198416612ce286612abe565b60005b82811015612d0a57848901518255600182019150602085019450602081019050612ce5565b86831015612d275784890151612d23601f891682612c30565b8355505b6001600288020188555050505b505050505050565b600081905092915050565b6000612d52826122ab565b612d5c8185612d3c565b9350612d6c8185602086016122c7565b80840191505092915050565b6000612d848285612d47565b9150612d908284612d47565b91508190509392505050565b600081519050919050565b600082825260208201905092915050565b6000612dc382612d9c565b612dcd8185612da7565b9350612ddd8185602086016122c7565b612de6816122f1565b840191505092915050565b6000608082019050612e0660008301876123f2565b612e1360208301866123f2565b612e206040830185612488565b8181036060830152612e328184612db8565b905095945050505050565b600081519050612e4c8161221c565b92915050565b600060208284031215612e6857612e676121e6565b5b6000612e7684828501612e3d565b91505092915050565b7f4e487b7100000000000000000000000000000000000000000000000000000000600052601260045260246000fd5b6000612eb98261235d565b9150612ec48361235d565b9250828203905081811115612edc57612edb6129b8565b5b92915050565b7f4e487b7100000000000000000000000000000000000000000000000000000000600052603160045260246000fdfea264697066735822122036ff04122919c694dff8ec0aa97796f7dafbb9da4beeafd713165cd1a68d5f7864736f6c63430008140033",
  "linkReferences": {},
  "deployedLinkReferences": {}
}